{
  "_format": "hh-sol-artifact-1",
  "contractName": "DevBoneDistributor",
  "sourceName": "contracts/DevBoneDistributor.sol",
  "abi": [
    {
      "inputs": [
        {
          "internalType": "contract IERC20",
          "name": "_bone",
          "type": "address"
        },
        {
          "internalType": "contract BoneLocker",
          "name": "_boneLocker",
          "type": "address"
        },
        {
          "internalType": "address",
          "name": "_devWallet",
          "type": "address"
        },
        {
          "internalType": "address",
          "name": "_marketingWallet",
          "type": "address"
        },
        {
          "internalType": "address",
          "name": "_adminWallet",
          "type": "address"
        }
      ],
      "stateMutability": "nonpayable",
      "type": "constructor"
    },
    {
      "anonymous": false,
      "inputs": [
        {
          "indexed": false,
          "internalType": "uint256",
          "name": "devSharePercent",
          "type": "uint256"
        },
        {
          "indexed": false,
          "internalType": "uint256",
          "name": "marketingSharePercent",
          "type": "uint256"
        },
        {
          "indexed": false,
          "internalType": "uint256",
          "name": "adminSharePercent",
          "type": "uint256"
        }
      ],
      "name": "DistributionUpdated",
      "type": "event"
    },
    {
      "anonymous": false,
      "inputs": [
        {
          "indexed": true,
          "internalType": "address",
          "name": "previousOwner",
          "type": "address"
        },
        {
          "indexed": true,
          "internalType": "address",
          "name": "newOwner",
          "type": "address"
        }
      ],
      "name": "OwnershipTransferred",
      "type": "event"
    },
    {
      "anonymous": false,
      "inputs": [
        {
          "indexed": false,
          "internalType": "string",
          "name": "wallet",
          "type": "string"
        },
        {
          "indexed": true,
          "internalType": "address",
          "name": "user",
          "type": "address"
        },
        {
          "indexed": false,
          "internalType": "address",
          "name": "newAddr",
          "type": "address"
        }
      ],
      "name": "WalletUpdated",
      "type": "event"
    },
    {
      "inputs": [],
      "name": "adminSharePercent",
      "outputs": [
        {
          "internalType": "uint256",
          "name": "",
          "type": "uint256"
        }
      ],
      "stateMutability": "view",
      "type": "function"
    },
    {
      "inputs": [],
      "name": "adminWallet",
      "outputs": [
        {
          "internalType": "address",
          "name": "",
          "type": "address"
        }
      ],
      "stateMutability": "view",
      "type": "function"
    },
    {
      "inputs": [],
      "name": "bone",
      "outputs": [
        {
          "internalType": "contract IERC20",
          "name": "",
          "type": "address"
        }
      ],
      "stateMutability": "view",
      "type": "function"
    },
    {
      "inputs": [],
      "name": "boneBalance",
      "outputs": [
        {
          "internalType": "uint256",
          "name": "",
          "type": "uint256"
        }
      ],
      "stateMutability": "view",
      "type": "function"
    },
    {
      "inputs": [],
      "name": "boneLocker",
      "outputs": [
        {
          "internalType": "contract BoneLocker",
          "name": "",
          "type": "address"
        }
      ],
      "stateMutability": "view",
      "type": "function"
    },
    {
      "inputs": [
        {
          "internalType": "address",
          "name": "_boneLocker",
          "type": "address"
        }
      ],
      "name": "boneLockerUpdate",
      "outputs": [],
      "stateMutability": "nonpayable",
      "type": "function"
    },
    {
      "inputs": [
        {
          "internalType": "uint256",
          "name": "r",
          "type": "uint256"
        }
      ],
      "name": "claimLockedTokens",
      "outputs": [],
      "stateMutability": "nonpayable",
      "type": "function"
    },
    {
      "inputs": [],
      "name": "devSharePercent",
      "outputs": [
        {
          "internalType": "uint256",
          "name": "",
          "type": "uint256"
        }
      ],
      "stateMutability": "view",
      "type": "function"
    },
    {
      "inputs": [],
      "name": "devWallet",
      "outputs": [
        {
          "internalType": "address",
          "name": "",
          "type": "address"
        }
      ],
      "stateMutability": "view",
      "type": "function"
    },
    {
      "inputs": [
        {
          "internalType": "uint256",
          "name": "_total",
          "type": "uint256"
        }
      ],
      "name": "distribute",
      "outputs": [],
      "stateMutability": "nonpayable",
      "type": "function"
    },
    {
      "inputs": [],
      "name": "marketingSharePercent",
      "outputs": [
        {
          "internalType": "uint256",
          "name": "",
          "type": "uint256"
        }
      ],
      "stateMutability": "view",
      "type": "function"
    },
    {
      "inputs": [],
      "name": "marketingWallet",
      "outputs": [
        {
          "internalType": "address",
          "name": "",
          "type": "address"
        }
      ],
      "stateMutability": "view",
      "type": "function"
    },
    {
      "inputs": [],
      "name": "owner",
      "outputs": [
        {
          "internalType": "address",
          "name": "",
          "type": "address"
        }
      ],
      "stateMutability": "view",
      "type": "function"
    },
    {
      "inputs": [],
      "name": "renounceOwnership",
      "outputs": [],
      "stateMutability": "nonpayable",
      "type": "function"
    },
    {
      "inputs": [
        {
          "internalType": "address",
          "name": "_adminWallet",
          "type": "address"
        }
      ],
      "name": "setAdminWallet",
      "outputs": [],
      "stateMutability": "nonpayable",
      "type": "function"
    },
    {
      "inputs": [
        {
          "internalType": "address",
          "name": "_devWallet",
          "type": "address"
        }
      ],
      "name": "setDevWallet",
      "outputs": [],
      "stateMutability": "nonpayable",
      "type": "function"
    },
    {
      "inputs": [
        {
          "internalType": "address",
          "name": "_marketingWallet",
          "type": "address"
        }
      ],
      "name": "setMarketingWallet",
      "outputs": [],
      "stateMutability": "nonpayable",
      "type": "function"
    },
    {
      "inputs": [
        {
          "internalType": "uint256",
          "name": "_devSharePercent",
          "type": "uint256"
        },
        {
          "internalType": "uint256",
          "name": "_marketingSharePercent",
          "type": "uint256"
        },
        {
          "internalType": "uint256",
          "name": "_adminSharePercent",
          "type": "uint256"
        }
      ],
      "name": "setWalletDistribution",
      "outputs": [],
      "stateMutability": "nonpayable",
      "type": "function"
    },
    {
      "inputs": [
        {
          "internalType": "address",
          "name": "newOwner",
          "type": "address"
        }
      ],
      "name": "transferOwnership",
      "outputs": [],
      "stateMutability": "nonpayable",
      "type": "function"
    }
  ],
  "bytecode": "0x608060405234801561001057600080fd5b50604051611348380380611348833981810160405260a081101561003357600080fd5b50805160208201516040830151606084015160809094015192939192909190600061005c610117565b600080546001600160a01b0319166001600160a01b0383169081178255604051929350917f8be0079c531659141344cd1fd0a4f28419497f9722a3daafe3b4186f6b6457e0908290a350600180546001600160a01b03199081166001600160a01b0397881617909155600280548216958716959095179094556003805485169386169390931790925560048054841691851691909117905560058054909216921691909117905560406006556010600755601460085561011b565b3390565b61121e8061012a6000396000f3fe608060405234801561001057600080fd5b50600436106101515760003560e01c8063912838e5116100cd578063b8e635fa11610081578063e45b832311610066578063e45b8323146102a8578063ee2f5055146102d1578063f2fde38b146102d957610151565b8063b8e635fa14610283578063d120ed561461028b57610151565b80639f9b5d1b116100b25780639f9b5d1b1461024d578063a27f67cf14610255578063b6029be81461025d57610151565b8063912838e51461021657806391c05b0b1461023057610151565b80635d098b381161012457806375f0a8741161010957806375f0a874146101fe5780638da5cb5b146102065780638ea5220f1461020e57610151565b80635d098b38146101d0578063715018a6146101f657610151565b80631f53ac021461015657806326631b651461017e57806335082933146101a257806336b19cd7146101c8575b600080fd5b61017c6004803603602081101561016c57600080fd5b50356001600160a01b03166102ff565b005b610186610416565b604080516001600160a01b039092168252519081900360200190f35b61017c600480360360208110156101b857600080fd5b50356001600160a01b0316610425565b61018661053c565b61017c600480360360208110156101e657600080fd5b50356001600160a01b031661054b565b61017c610662565b610186610738565b610186610747565b610186610756565b61021e610765565b60408051918252519081900360200190f35b61017c6004803603602081101561024657600080fd5b503561076b565b61021e610b62565b61021e610b68565b61017c6004803603602081101561027357600080fd5b50356001600160a01b0316610b6e565b61021e610c1c565b61017c600480360360208110156102a157600080fd5b5035610cb1565b61017c600480360360608110156102be57600080fd5b5080359060208101359060400135610da6565b610186610ec0565b61017c600480360360208110156102ef57600080fd5b50356001600160a01b0316610ecf565b610307610ffb565b6001600160a01b0316610318610747565b6001600160a01b031614610373576040805162461bcd60e51b815260206004820181905260248201527f4f776e61626c653a2063616c6c6572206973206e6f7420746865206f776e6572604482015290519081900360640190fd5b600380546001600160a01b0383167fffffffffffffffffffffffff00000000000000000000000000000000000000009091168117909155604080516020810192909252808252600a828201527f4465762057616c6c65740000000000000000000000000000000000000000000060608301525133917fd8e98bff5ae8522235ef48daecff7488b367200bea03a4e8cb4bc98108c6a492919081900360800190a250565b6001546001600160a01b031681565b61042d610ffb565b6001600160a01b031661043e610747565b6001600160a01b031614610499576040805162461bcd60e51b815260206004820181905260248201527f4f776e61626c653a2063616c6c6572206973206e6f7420746865206f776e6572604482015290519081900360640190fd5b600580546001600160a01b0383167fffffffffffffffffffffffff00000000000000000000000000000000000000009091168117909155604080516020810192909252808252600c828201527f41646d696e2057616c6c6574000000000000000000000000000000000000000060608301525133917fd8e98bff5ae8522235ef48daecff7488b367200bea03a4e8cb4bc98108c6a492919081900360800190a250565b6005546001600160a01b031681565b610553610ffb565b6001600160a01b0316610564610747565b6001600160a01b0316146105bf576040805162461bcd60e51b815260206004820181905260248201527f4f776e61626c653a2063616c6c6572206973206e6f7420746865206f776e6572604482015290519081900360640190fd5b600480546001600160a01b0383167fffffffffffffffffffffffff000000000000000000000000000000000000000090911681179091556040805160208101929092528082526010828201527f4d61726b6574696e672057616c6c65740000000000000000000000000000000060608301525133917fd8e98bff5ae8522235ef48daecff7488b367200bea03a4e8cb4bc98108c6a492919081900360800190a250565b61066a610ffb565b6001600160a01b031661067b610747565b6001600160a01b0316146106d6576040805162461bcd60e51b815260206004820181905260248201527f4f776e61626c653a2063616c6c6572206973206e6f7420746865206f776e6572604482015290519081900360640190fd5b600080546040516001600160a01b03909116907f8be0079c531659141344cd1fd0a4f28419497f9722a3daafe3b4186f6b6457e0908390a3600080547fffffffffffffffffffffffff0000000000000000000000000000000000000000169055565b6004546001600160a01b031681565b6000546001600160a01b031690565b6003546001600160a01b031681565b60085481565b610773610ffb565b6001600160a01b0316610784610747565b6001600160a01b0316146107df576040805162461bcd60e51b815260206004820181905260248201527f4f776e61626c653a2063616c6c6572206973206e6f7420746865206f776e6572604482015290519081900360640190fd5b60008111610834576040805162461bcd60e51b815260206004820152601560248201527f4e6f20424f4e4520746f20646973747269627574650000000000000000000000604482015290519081900360640190fd5b6000610856606461085060065485610fff90919063ffffffff16565b90611061565b90506000610874606461085060075486610fff90919063ffffffff16565b9050600061088c8261088686866110c8565b906110c8565b600154600354604080517fa9059cbb0000000000000000000000000000000000000000000000000000000081526001600160a01b03928316600482015260248101889052905193945091169163a9059cbb916044808201926020929091908290030181600087803b15801561090057600080fd5b505af1158015610914573d6000803e3d6000fd5b505050506040513d602081101561092a57600080fd5b505161097d576040805162461bcd60e51b815260206004820152601a60248201527f7472616e736665723a2064657657616c6c6574206661696c6564000000000000604482015290519081900360640190fd5b60015460048054604080517fa9059cbb0000000000000000000000000000000000000000000000000000000081526001600160a01b0392831693810193909352602483018690525192169163a9059cbb916044808201926020929091908290030181600087803b1580156109f057600080fd5b505af1158015610a04573d6000803e3d6000fd5b505050506040513d6020811015610a1a57600080fd5b5051610a6d576040805162461bcd60e51b815260206004820181905260248201527f7472616e736665723a206d61726b6574696e6757616c6c6574206661696c6564604482015290519081900360640190fd5b600154600554604080517fa9059cbb0000000000000000000000000000000000000000000000000000000081526001600160a01b039283166004820152602481018590529051919092169163a9059cbb9160448083019260209291908290030181600087803b158015610adf57600080fd5b505af1158015610af3573d6000803e3d6000fd5b505050506040513d6020811015610b0957600080fd5b5051610b5c576040805162461bcd60e51b815260206004820152601c60248201527f7472616e736665723a2061646d696e57616c6c6574206661696c656400000000604482015290519081900360640190fd5b50505050565b60075481565b60065481565b610b76610ffb565b6001600160a01b0316610b87610747565b6001600160a01b031614610be2576040805162461bcd60e51b815260206004820181905260248201527f4f776e61626c653a2063616c6c6572206973206e6f7420746865206f776e6572604482015290519081900360640190fd5b600280547fffffffffffffffffffffffff0000000000000000000000000000000000000000166001600160a01b0392909216919091179055565b600154604080517f70a0823100000000000000000000000000000000000000000000000000000000815230600482015290516000926001600160a01b0316916370a08231916024808301926020929190829003018186803b158015610c8057600080fd5b505afa158015610c94573d6000803e3d6000fd5b505050506040513d6020811015610caa57600080fd5b5051905090565b610cb9610ffb565b6001600160a01b0316610cca610747565b6001600160a01b031614610d25576040805162461bcd60e51b815260206004820181905260248201527f4f776e61626c653a2063616c6c6572206973206e6f7420746865206f776e6572604482015290519081900360640190fd5b600254604080517f6930fd2a0000000000000000000000000000000000000000000000000000000081526004810184905290516001600160a01b0390921691636930fd2a9160248082019260009290919082900301818387803b158015610d8b57600080fd5b505af1158015610d9f573d6000803e3d6000fd5b5050505050565b610dae610ffb565b6001600160a01b0316610dbf610747565b6001600160a01b031614610e1a576040805162461bcd60e51b815260206004820181905260248201527f4f776e61626c653a2063616c6c6572206973206e6f7420746865206f776e6572604482015290519081900360640190fd5b610e2e81610e288585611125565b90611125565b606414610e6c5760405162461bcd60e51b81526004018080602001828103825260228152602001806111a66022913960400191505060405180910390fd5b600683905560078290556008819055604080518481526020810184905280820183905290517f33a9e5064cde0e23e17620f5186dbc127306864069276a5b80b24ffc5481cb4a9181900360600190a1505050565b6002546001600160a01b031681565b610ed7610ffb565b6001600160a01b0316610ee8610747565b6001600160a01b031614610f43576040805162461bcd60e51b815260206004820181905260248201527f4f776e61626c653a2063616c6c6572206973206e6f7420746865206f776e6572604482015290519081900360640190fd5b6001600160a01b038116610f885760405162461bcd60e51b81526004018080602001828103825260268152602001806111806026913960400191505060405180910390fd5b600080546040516001600160a01b03808516939216917f8be0079c531659141344cd1fd0a4f28419497f9722a3daafe3b4186f6b6457e091a3600080547fffffffffffffffffffffffff0000000000000000000000000000000000000000166001600160a01b0392909216919091179055565b3390565b60008261100e5750600061105b565b8282028284828161101b57fe5b04146110585760405162461bcd60e51b81526004018080602001828103825260218152602001806111c86021913960400191505060405180910390fd5b90505b92915050565b60008082116110b7576040805162461bcd60e51b815260206004820152601a60248201527f536166654d6174683a206469766973696f6e206279207a65726f000000000000604482015290519081900360640190fd5b8183816110c057fe5b049392505050565b60008282111561111f576040805162461bcd60e51b815260206004820152601e60248201527f536166654d6174683a207375627472616374696f6e206f766572666c6f770000604482015290519081900360640190fd5b50900390565b600082820183811015611058576040805162461bcd60e51b815260206004820152601b60248201527f536166654d6174683a206164646974696f6e206f766572666c6f770000000000604482015290519081900360640190fdfe4f776e61626c653a206e6577206f776e657220697320746865207a65726f20616464726573736469737472696275746f723a20496e636f72726563742070657263656e7461676573536166654d6174683a206d756c7469706c69636174696f6e206f766572666c6f77a2646970667358221220de252bc415dea6eac99232bea46a61b5dfc4794b5b4bb9e7cadd976be529037664736f6c634300060c0033",
  "linkReferences": {},
  "deployedLinkReferences": {}
}