{
  "_format": "hh-sol-artifact-1",
  "contractName": "BoringERC20",
  "sourceName": "contracts/libraries/BoringERC20.sol",
  "abi": [
    {
      "inputs": [
        {
          "internalType": "contract IERC20",
          "name": "token",
          "type": "IERC20"
        }
      ],
      "name": "safeDecimals",
      "outputs": [
        {
          "internalType": "uint8",
          "name": "",
          "type": "uint8"
        }
      ],
      "stateMutability": "view",
      "type": "function"
    }
  ],
  "bytecode": "0x61021e610026600b82828239805160001a60731461001957fe5b30600052607381538281f3fe73000000000000000000000000000000000000000030146080604052600436106100355760003560e01c806372a58ae11461003a575b600080fd5b61006d6004803603602081101561005057600080fd5b503573ffffffffffffffffffffffffffffffffffffffff16610083565b6040805160ff9092168252519081900360200190f35b60408051600481526024810182526020810180517bffffffffffffffffffffffffffffffffffffffffffffffffffffffff167f313ce5670000000000000000000000000000000000000000000000000000000017815291518151600093849360609373ffffffffffffffffffffffffffffffffffffffff881693919290918291908083835b6020831061014557805182527fffffffffffffffffffffffffffffffffffffffffffffffffffffffffffffffe09092019160209182019101610108565b6001836020036101000a038019825116818451168082178552505050505050905001915050600060405180830381855afa9150503d80600081146101a5576040519150601f19603f3d011682016040523d82523d6000602084013e6101aa565b606091505b50915091508180156101bd575080516020145b6101c85760126101e0565b8080602001905160208110156101dd57600080fd5b50515b94935050505056fea26469706673582212201b535c5d56e8bbce62fdea5228d4bbe2c7f8317aecf7ef176d20356398b57bed64736f6c634300060c0033",
  "linkReferences": {},
  "deployedLinkReferences": {}
}