{
  "_format": "hh-sol-artifact-1",
  "contractName": "RevertingERC20Mock",
  "sourceName": "contracts/mocks/RevertingERC20Mock.sol",
  "abi": [
    {
      "inputs": [
        {
          "internalType": "string",
          "name": "name_",
          "type": "string"
        },
        {
          "internalType": "string",
          "name": "symbol_",
          "type": "string"
        },
        {
          "internalType": "uint256",
          "name": "supply",
          "type": "uint256"
        }
      ],
      "stateMutability": "nonpayable",
      "type": "constructor"
    },
    {
      "anonymous": false,
      "inputs": [
        {
          "indexed": true,
          "internalType": "address",
          "name": "_owner",
          "type": "address"
        },
        {
          "indexed": true,
          "internalType": "address",
          "name": "_spender",
          "type": "address"
        },
        {
          "indexed": false,
          "internalType": "uint256",
          "name": "_value",
          "type": "uint256"
        }
      ],
      "name": "Approval",
      "type": "event"
    },
    {
      "anonymous": false,
      "inputs": [
        {
          "indexed": true,
          "internalType": "address",
          "name": "_from",
          "type": "address"
        },
        {
          "indexed": true,
          "internalType": "address",
          "name": "_to",
          "type": "address"
        },
        {
          "indexed": false,
          "internalType": "uint256",
          "name": "_value",
          "type": "uint256"
        }
      ],
      "name": "Transfer",
      "type": "event"
    },
    {
      "inputs": [
        {
          "internalType": "address",
          "name": "spender",
          "type": "address"
        },
        {
          "internalType": "uint256",
          "name": "amount",
          "type": "uint256"
        }
      ],
      "name": "approve",
      "outputs": [
        {
          "internalType": "bool",
          "name": "success",
          "type": "bool"
        }
      ],
      "stateMutability": "nonpayable",
      "type": "function"
    },
    {
      "inputs": [
        {
          "internalType": "address",
          "name": "",
          "type": "address"
        }
      ],
      "name": "balanceOf",
      "outputs": [
        {
          "internalType": "uint256",
          "name": "",
          "type": "uint256"
        }
      ],
      "stateMutability": "view",
      "type": "function"
    },
    {
      "inputs": [],
      "name": "decimals",
      "outputs": [
        {
          "internalType": "uint8",
          "name": "",
          "type": "uint8"
        }
      ],
      "stateMutability": "view",
      "type": "function"
    },
    {
      "inputs": [],
      "name": "name",
      "outputs": [
        {
          "internalType": "string",
          "name": "",
          "type": "string"
        }
      ],
      "stateMutability": "view",
      "type": "function"
    },
    {
      "inputs": [],
      "name": "symbol",
      "outputs": [
        {
          "internalType": "string",
          "name": "",
          "type": "string"
        }
      ],
      "stateMutability": "view",
      "type": "function"
    },
    {
      "inputs": [],
      "name": "totalSupply",
      "outputs": [
        {
          "internalType": "uint256",
          "name": "",
          "type": "uint256"
        }
      ],
      "stateMutability": "view",
      "type": "function"
    },
    {
      "inputs": [
        {
          "internalType": "address",
          "name": "to",
          "type": "address"
        },
        {
          "internalType": "uint256",
          "name": "amount",
          "type": "uint256"
        }
      ],
      "name": "transfer",
      "outputs": [
        {
          "internalType": "bool",
          "name": "success",
          "type": "bool"
        }
      ],
      "stateMutability": "nonpayable",
      "type": "function"
    },
    {
      "inputs": [
        {
          "internalType": "address",
          "name": "from",
          "type": "address"
        },
        {
          "internalType": "address",
          "name": "to",
          "type": "address"
        },
        {
          "internalType": "uint256",
          "name": "amount",
          "type": "uint256"
        }
      ],
      "name": "transferFrom",
      "outputs": [
        {
          "internalType": "bool",
          "name": "success",
          "type": "bool"
        }
      ],
      "stateMutability": "nonpayable",
      "type": "function"
    }
  ],
  "bytecode": "0x608060405234801561001057600080fd5b50604051610a98380380610a988339818101604052606081101561003357600080fd5b810190808051604051939291908464010000000082111561005357600080fd5b90830190602082018581111561006857600080fd5b825164010000000081118282018810171561008257600080fd5b82525081516020918201929091019080838360005b838110156100af578181015183820152602001610097565b50505050905090810190601f1680156100dc5780820380516001836020036101000a031916815260200191505b50604052602001805160405193929190846401000000008211156100ff57600080fd5b90830190602082018581111561011457600080fd5b825164010000000081118282018810171561012e57600080fd5b82525081516020918201929091019080838360005b8381101561015b578181015183820152602001610143565b50505050905090810190601f1680156101885780820380516001836020036101000a031916815260200191505b5060405260209081015185519093506101a792506001918601906101d9565b5081516101bb9060009060208501906101d9565b506002819055336000908152600360205260409020555061026c9050565b828054600181600116156101000203166002900490600052602060002090601f016020900481019282601f1061021a57805160ff1916838001178555610247565b82800160010185558215610247579182015b8281111561024757825182559160200191906001019061022c565b50610253929150610257565b5090565b5b808211156102535760008155600101610258565b61081d8061027b6000396000f3fe608060405234801561001057600080fd5b50600436106100885760003560e01c8063313ce5671161005b578063313ce567146101b457806370a08231146101d257806395d89b4114610205578063a9059cbb1461020d57610088565b806306fdde031461008d578063095ea7b31461010a57806318160ddd1461015757806323b872dd14610171575b600080fd5b610095610246565b6040805160208082528351818301528351919283929083019185019080838360005b838110156100cf5781810151838201526020016100b7565b50505050905090810190601f1680156100fc5780820380516001836020036101000a031916815260200191505b509250505060405180910390f35b6101436004803603604081101561012057600080fd5b5073ffffffffffffffffffffffffffffffffffffffff81351690602001356102f1565b604080519115158252519081900360200190f35b61015f610364565b60408051918252519081900360200190f35b6101436004803603606081101561018757600080fd5b5073ffffffffffffffffffffffffffffffffffffffff81358116916020810135909116906040013561036a565b6101bc6105c8565b6040805160ff9092168252519081900360200190f35b61015f600480360360208110156101e857600080fd5b503573ffffffffffffffffffffffffffffffffffffffff166105cd565b6100956105df565b6101436004803603604081101561022357600080fd5b5073ffffffffffffffffffffffffffffffffffffffff8135169060200135610658565b60018054604080516020600284861615610100027fffffffffffffffffffffffffffffffffffffffffffffffffffffffffffffffff0190941693909304601f810184900484028201840190925281815292918301828280156102e95780601f106102be576101008083540402835291602001916102e9565b820191906000526020600020905b8154815290600101906020018083116102cc57829003601f168201915b505050505081565b33600081815260046020908152604080832073ffffffffffffffffffffffffffffffffffffffff8716808552908352818420869055815186815291519394909390927f8c5be1e5ebec7d5bd14f71427d1e84f3dd0314c0f7b2291e5b200ac8c7c3b925928290030190a350600192915050565b60025481565b73ffffffffffffffffffffffffffffffffffffffff83166000908152600360205260408120548211156103fe57604080517f08c379a000000000000000000000000000000000000000000000000000000000815260206004820152601760248201527f546f6b656e423a2062616c616e636520746f6f206c6f77000000000000000000604482015290519081900360640190fd5b73ffffffffffffffffffffffffffffffffffffffff8416600090815260046020908152604080832033845290915290205482111561049d57604080517f08c379a000000000000000000000000000000000000000000000000000000000815260206004820152601960248201527f546f6b656e423a20616c6c6f77616e636520746f6f206c6f7700000000000000604482015290519081900360640190fd5b73ffffffffffffffffffffffffffffffffffffffff8316600090815260036020526040902054828101101561053357604080517f08c379a000000000000000000000000000000000000000000000000000000000815260206004820152601960248201527f546f6b656e423a206f766572666c6f7720646574656374656400000000000000604482015290519081900360640190fd5b73ffffffffffffffffffffffffffffffffffffffff80851660008181526003602081815260408084208054899003905560048252808420338552825280842080548990039055948816808452918152918490208054870190558351868152935190937fddf252ad1be2c89b69c2b068fc378daa952ba7f163c4a11628f55a4df523b3ef92908290030190a35060019392505050565b601281565b60036020526000908152604090205481565b6000805460408051602060026001851615610100027fffffffffffffffffffffffffffffffffffffffffffffffffffffffffffffffff0190941693909304601f810184900484028201840190925281815292918301828280156102e95780601f106102be576101008083540402835291602001916102e9565b336000908152600360205260408120548211156106d657604080517f08c379a000000000000000000000000000000000000000000000000000000000815260206004820152601760248201527f546f6b656e423a2062616c616e636520746f6f206c6f77000000000000000000604482015290519081900360640190fd5b73ffffffffffffffffffffffffffffffffffffffff8316600090815260036020526040902054828101101561076c57604080517f08c379a000000000000000000000000000000000000000000000000000000000815260206004820152601960248201527f546f6b656e423a206f766572666c6f7720646574656374656400000000000000604482015290519081900360640190fd5b3360008181526003602090815260408083208054879003905573ffffffffffffffffffffffffffffffffffffffff871680845292819020805487019055805186815290519293927fddf252ad1be2c89b69c2b068fc378daa952ba7f163c4a11628f55a4df523b3ef929181900390910190a35060019291505056fea264697066735822122004c9db4ab97191c33e53c191493831906cc85baafda0493cb37845d16e7a1c1364736f6c634300060c0033",
  "linkReferences": {},
  "deployedLinkReferences": {}
}