{
  "_format": "hh-sol-artifact-1",
  "contractName": "xShibBoneDistributor",
  "sourceName": "contracts/xShibBoneDistributor.sol",
  "abi": [
    {
      "inputs": [
        {
          "internalType": "contract IERC20",
          "name": "_bone",
          "type": "address"
        }
      ],
      "stateMutability": "nonpayable",
      "type": "constructor"
    },
    {
      "anonymous": false,
      "inputs": [
        {
          "indexed": true,
          "internalType": "address",
          "name": "previousOwner",
          "type": "address"
        },
        {
          "indexed": true,
          "internalType": "address",
          "name": "newOwner",
          "type": "address"
        }
      ],
      "name": "OwnershipTransferred",
      "type": "event"
    },
    {
      "inputs": [],
      "name": "bone",
      "outputs": [
        {
          "internalType": "contract IERC20",
          "name": "",
          "type": "address"
        }
      ],
      "stateMutability": "view",
      "type": "function"
    },
    {
      "inputs": [],
      "name": "boneBalance",
      "outputs": [
        {
          "internalType": "uint256",
          "name": "",
          "type": "uint256"
        }
      ],
      "stateMutability": "view",
      "type": "function"
    },
    {
      "inputs": [],
      "name": "lockPercentage",
      "outputs": [
        {
          "internalType": "uint256",
          "name": "",
          "type": "uint256"
        }
      ],
      "stateMutability": "view",
      "type": "function"
    },
    {
      "inputs": [],
      "name": "owner",
      "outputs": [
        {
          "internalType": "address",
          "name": "",
          "type": "address"
        }
      ],
      "stateMutability": "view",
      "type": "function"
    },
    {
      "inputs": [],
      "name": "renounceOwnership",
      "outputs": [],
      "stateMutability": "nonpayable",
      "type": "function"
    },
    {
      "inputs": [
        {
          "internalType": "uint256",
          "name": "_lockPercentage",
          "type": "uint256"
        }
      ],
      "name": "setLockPercentage",
      "outputs": [],
      "stateMutability": "nonpayable",
      "type": "function"
    },
    {
      "inputs": [
        {
          "internalType": "address",
          "name": "newOwner",
          "type": "address"
        }
      ],
      "name": "transferOwnership",
      "outputs": [],
      "stateMutability": "nonpayable",
      "type": "function"
    },
    {
      "inputs": [
        {
          "internalType": "address",
          "name": "_destination",
          "type": "address"
        },
        {
          "internalType": "address",
          "name": "_lockDestination",
          "type": "address"
        },
        {
          "internalType": "uint256",
          "name": "_lockingPeriod",
          "type": "uint256"
        },
        {
          "internalType": "uint256",
          "name": "_amount",
          "type": "uint256"
        }
      ],
      "name": "withdrawBone",
      "outputs": [],
      "stateMutability": "nonpayable",
      "type": "function"
    }
  ],
  "bytecode": "0x6080604052604360025534801561001557600080fd5b50604051610cb6380380610cb68339818101604052602081101561003857600080fd5b50518060006100456100b5565b600080546001600160a01b0319166001600160a01b0383169081178255604051929350917f8be0079c531659141344cd1fd0a4f28419497f9722a3daafe3b4186f6b6457e0908290a350600180546001600160a01b0319166001600160a01b0392909216919091179055506100b9565b3390565b610bee806100c86000396000f3fe608060405234801561001057600080fd5b50600436106100885760003560e01c8063715018a61161005b578063715018a6146101405780638da5cb5b14610148578063b8e635fa14610150578063f2fde38b1461015857610088565b8063226125a81461008d57806326631b65146100ac578063356442b9146100dd57806338dd0875146100f7575b600080fd5b6100aa600480360360208110156100a357600080fd5b503561018b565b005b6100b461021e565b6040805173ffffffffffffffffffffffffffffffffffffffff9092168252519081900360200190f35b6100e561023a565b60408051918252519081900360200190f35b6100aa6004803603608081101561010d57600080fd5b5073ffffffffffffffffffffffffffffffffffffffff813581169160208101359091169060408101359060600135610240565b6100aa61043a565b6100b4610537565b6100e5610553565b6100aa6004803603602081101561016e57600080fd5b503573ffffffffffffffffffffffffffffffffffffffff166105f5565b610193610762565b73ffffffffffffffffffffffffffffffffffffffff166101b1610537565b73ffffffffffffffffffffffffffffffffffffffff1614610219576040805162461bcd60e51b815260206004820181905260248201527f4f776e61626c653a2063616c6c6572206973206e6f7420746865206f776e6572604482015290519081900360640190fd5b600255565b60015473ffffffffffffffffffffffffffffffffffffffff1681565b60025481565b610248610762565b73ffffffffffffffffffffffffffffffffffffffff16610266610537565b73ffffffffffffffffffffffffffffffffffffffff16146102ce576040805162461bcd60e51b815260206004820181905260248201527f4f776e61626c653a2063616c6c6572206973206e6f7420746865206f776e6572604482015290519081900360640190fd5b60006102f060646102ea6002548561076690919063ffffffff16565b906107c8565b90508061032e5760405162461bcd60e51b8152600401808060200182810382526027815260200180610b716027913960400191505060405180910390fd5b60015473ffffffffffffffffffffffffffffffffffffffff1663a9059cbb86610357858561082f565b6040518363ffffffff1660e01b8152600401808373ffffffffffffffffffffffffffffffffffffffff16815260200182815260200192505050602060405180830381600087803b1580156103aa57600080fd5b505af11580156103be573d6000803e3d6000fd5b505050506040513d60208110156103d457600080fd5b5051610427576040805162461bcd60e51b815260206004820152601960248201527f7472616e736665723a207769746864726177206661696c656400000000000000604482015290519081900360640190fd5b61043284828561088c565b505050505050565b610442610762565b73ffffffffffffffffffffffffffffffffffffffff16610460610537565b73ffffffffffffffffffffffffffffffffffffffff16146104c8576040805162461bcd60e51b815260206004820181905260248201527f4f776e61626c653a2063616c6c6572206973206e6f7420746865206f776e6572604482015290519081900360640190fd5b6000805460405173ffffffffffffffffffffffffffffffffffffffff909116907f8be0079c531659141344cd1fd0a4f28419497f9722a3daafe3b4186f6b6457e0908390a3600080547fffffffffffffffffffffffff0000000000000000000000000000000000000000169055565b60005473ffffffffffffffffffffffffffffffffffffffff1690565b600154604080517f70a08231000000000000000000000000000000000000000000000000000000008152306004820152905160009273ffffffffffffffffffffffffffffffffffffffff16916370a08231916024808301926020929190829003018186803b1580156105c457600080fd5b505afa1580156105d8573d6000803e3d6000fd5b505050506040513d60208110156105ee57600080fd5b5051905090565b6105fd610762565b73ffffffffffffffffffffffffffffffffffffffff1661061b610537565b73ffffffffffffffffffffffffffffffffffffffff1614610683576040805162461bcd60e51b815260206004820181905260248201527f4f776e61626c653a2063616c6c6572206973206e6f7420746865206f776e6572604482015290519081900360640190fd5b73ffffffffffffffffffffffffffffffffffffffff81166106d55760405162461bcd60e51b8152600401808060200182810382526026815260200180610b1b6026913960400191505060405180910390fd5b6000805460405173ffffffffffffffffffffffffffffffffffffffff808516939216917f8be0079c531659141344cd1fd0a4f28419497f9722a3daafe3b4186f6b6457e091a3600080547fffffffffffffffffffffffff00000000000000000000000000000000000000001673ffffffffffffffffffffffffffffffffffffffff92909216919091179055565b3390565b600082610775575060006107c2565b8282028284828161078257fe5b04146107bf5760405162461bcd60e51b8152600401808060200182810382526021815260200180610b986021913960400191505060405180910390fd5b90505b92915050565b600080821161081e576040805162461bcd60e51b815260206004820152601a60248201527f536166654d6174683a206469766973696f6e206279207a65726f000000000000604482015290519081900360640190fd5b81838161082757fe5b049392505050565b600082821115610886576040805162461bcd60e51b815260206004820152601e60248201527f536166654d6174683a207375627472616374696f6e206f766572666c6f770000604482015290519081900360640190fd5b50900390565b600154604080517f095ea7b300000000000000000000000000000000000000000000000000000000815273ffffffffffffffffffffffffffffffffffffffff8681166004830152602482018690529151600093929092169163095ea7b39160448082019260209290919082900301818787803b15801561090b57600080fd5b505af115801561091f573d6000803e3d6000fd5b505050506040513d602081101561093557600080fd5b50506040805160608101909152603080825260009173ffffffffffffffffffffffffffffffffffffffff871691610b41602083013980516020918201206001546040805173ffffffffffffffffffffffffffffffffffffffff90921660248301526044820189905230606483015260848083018990528151808403909101815260a4909201815292810180517bffffffffffffffffffffffffffffffffffffffffffffffffffffffff167fffffffff0000000000000000000000000000000000000000000000000000000090931692909217825291518251909182918083835b60208310610a5257805182527fffffffffffffffffffffffffffffffffffffffffffffffffffffffffffffffe09092019160209182019101610a15565b6001836020036101000a0380198251168184511680821785525050505050509050019150506000604051808303816000865af19150503d8060008114610ab4576040519150601f19603f3d011682016040523d82523d6000602084013e610ab9565b606091505b5050905080610b0f576040805162461bcd60e51b815260206004820152601f60248201527f5370656e6465722d2072656365697665417070726f76616c206661696c656400604482015290519081900360640190fd5b50600194935050505056fe4f776e61626c653a206e6577206f776e657220697320746865207a65726f206164647265737372656365697665417070726f76616c28616464726573732c75696e743235362c616464726573732c75696e74323536296c6f636b656420616d6f756e74206973207a65726f2c2063616e6e6f74206c6f636b207a65726f536166654d6174683a206d756c7469706c69636174696f6e206f766572666c6f77a264697066735822122084fe4211b3da8d95aad561123d30312203ecc6e4f335ee499afec8e97de3f48864736f6c634300060c0033",
  "linkReferences": {},
  "deployedLinkReferences": {}
}