{
  "_format": "hh-sol-artifact-1",
  "contractName": "MultiTokenLocker",
  "sourceName": "contracts/MultiTokenLocker.sol",
  "abi": [
    {
      "anonymous": false,
      "inputs": [
        {
          "indexed": true,
          "internalType": "address",
          "name": "previousOwner",
          "type": "address"
        },
        {
          "indexed": true,
          "internalType": "address",
          "name": "newOwner",
          "type": "address"
        }
      ],
      "name": "OwnershipTransferred",
      "type": "event"
    },
    {
      "inputs": [
        {
          "internalType": "address",
          "name": "_distributorContract",
          "type": "address"
        }
      ],
      "name": "getLockedTokensLength",
      "outputs": [
        {
          "internalType": "uint256",
          "name": "",
          "type": "uint256"
        }
      ],
      "stateMutability": "view",
      "type": "function"
    },
    {
      "inputs": [
        {
          "internalType": "address",
          "name": "",
          "type": "address"
        },
        {
          "internalType": "uint256",
          "name": "",
          "type": "uint256"
        }
      ],
      "name": "isClaimed",
      "outputs": [
        {
          "internalType": "bool",
          "name": "",
          "type": "bool"
        }
      ],
      "stateMutability": "view",
      "type": "function"
    },
    {
      "inputs": [
        {
          "internalType": "address",
          "name": "",
          "type": "address"
        },
        {
          "internalType": "uint256",
          "name": "",
          "type": "uint256"
        }
      ],
      "name": "lockInfoByContract",
      "outputs": [
        {
          "internalType": "address",
          "name": "_rewardToken",
          "type": "address"
        },
        {
          "internalType": "uint256",
          "name": "_amount",
          "type": "uint256"
        },
        {
          "internalType": "uint256",
          "name": "_timestamp",
          "type": "uint256"
        },
        {
          "internalType": "uint256",
          "name": "_lockingPeriod",
          "type": "uint256"
        }
      ],
      "stateMutability": "view",
      "type": "function"
    },
    {
      "inputs": [
        {
          "internalType": "address",
          "name": "",
          "type": "address"
        },
        {
          "internalType": "address",
          "name": "",
          "type": "address"
        }
      ],
      "name": "lockedTokensByContract",
      "outputs": [
        {
          "internalType": "uint256",
          "name": "",
          "type": "uint256"
        }
      ],
      "stateMutability": "view",
      "type": "function"
    },
    {
      "inputs": [],
      "name": "owner",
      "outputs": [
        {
          "internalType": "address",
          "name": "",
          "type": "address"
        }
      ],
      "stateMutability": "view",
      "type": "function"
    },
    {
      "inputs": [
        {
          "internalType": "contract IERC20",
          "name": "_token",
          "type": "address"
        },
        {
          "internalType": "uint256",
          "name": "_value",
          "type": "uint256"
        },
        {
          "internalType": "address",
          "name": "_distributorContract",
          "type": "address"
        },
        {
          "internalType": "uint256",
          "name": "_lockingPeriod",
          "type": "uint256"
        }
      ],
      "name": "receiveApproval",
      "outputs": [
        {
          "internalType": "bool",
          "name": "",
          "type": "bool"
        }
      ],
      "stateMutability": "nonpayable",
      "type": "function"
    },
    {
      "inputs": [],
      "name": "renounceOwnership",
      "outputs": [],
      "stateMutability": "nonpayable",
      "type": "function"
    },
    {
      "inputs": [
        {
          "internalType": "address",
          "name": "newOwner",
          "type": "address"
        }
      ],
      "name": "transferOwnership",
      "outputs": [],
      "stateMutability": "nonpayable",
      "type": "function"
    },
    {
      "inputs": [
        {
          "internalType": "address[]",
          "name": "_distributorContract",
          "type": "address[]"
        },
        {
          "internalType": "address[][]",
          "name": "_to",
          "type": "address[][]"
        },
        {
          "internalType": "uint256[][]",
          "name": "_lockId",
          "type": "uint256[][]"
        }
      ],
      "name": "withdrawTheseToken",
      "outputs": [],
      "stateMutability": "nonpayable",
      "type": "function"
    },
    {
      "inputs": [
        {
          "internalType": "address",
          "name": "_distributorContract",
          "type": "address"
        },
        {
          "internalType": "address",
          "name": "_to",
          "type": "address"
        },
        {
          "internalType": "uint256",
          "name": "_lockId",
          "type": "uint256"
        }
      ],
      "name": "withdrawThisToken",
      "outputs": [],
      "stateMutability": "nonpayable",
      "type": "function"
    }
  ],
  "bytecode": "0x608060405234801561001057600080fd5b50600061001b61006a565b600080546001600160a01b0319166001600160a01b0383169081178255604051929350917f8be0079c531659141344cd1fd0a4f28419497f9722a3daafe3b4186f6b6457e0908290a35061006e565b3390565b6113528061007d6000396000f3fe608060405234801561001057600080fd5b50600436106100be5760003560e01c8063715018a611610076578063e60daaea1161005b578063e60daaea14610164578063f21cde8414610177578063f2fde38b1461019a576100be565b8063715018a6146101475780638da5cb5b1461014f576100be565b806340328504116100a7578063403285041461010157806349dfd02514610114578063562beba814610134576100be565b806307e58b98146100c35780632e7524ce146100ec575b600080fd5b6100d66100d1366004610c23565b6101ad565b6040516100e3919061126a565b60405180910390f35b6100ff6100fa366004610ce2565b6101c8565b005b6100d661010f366004610c3f565b610394565b610127610122366004610d98565b6103b1565b6040516100e39190610e72565b610127610142366004610cb7565b6104b6565b6100ff6104d6565b610157610577565b6040516100e39190610dfb565b6100ff610172366004610c77565b610586565b61018a610185366004610cb7565b6107ea565b6040516100e39493929190610e4c565b6100ff6101a8366004610c23565b610837565b6001600160a01b031660009081526001602052604090205490565b6101d061090f565b6001600160a01b03166101e1610577565b6001600160a01b0316146102105760405162461bcd60e51b8152600401610207906110e7565b60405180910390fd5b84831461022f5760405162461bcd60e51b815260040161020790610ff6565b82811461024e5760405162461bcd60e51b81526004016102079061111c565b6000805b8682101561038a5783838381811061026657fe5b90506020028101906102789190611273565b905086868481811061028657fe5b90506020028101906102989190611273565b9050146102b75760405162461bcd60e51b81526004016102079061108a565b5060005b8585838181106102c757fe5b90506020028101906102d99190611273565b905081101561037f576103778888848181106102f157fe5b90506020020160208101906103069190610c23565b87878581811061031257fe5b90506020028101906103249190611273565b8481811061032e57fe5b90506020020160208101906103439190610c23565b86868681811061034f57fe5b90506020028101906103619190611273565b8581811061036b57fe5b90506020020135610586565b6001016102bb565b600190910190610252565b5050505050505050565b600260209081526000928352604080842090915290825290205481565b60006103c86001600160a01b038616843087610913565b6001600160a01b03838116600081815260016020818152604080842081516080810183528c88168082528185018d815242838601908152606084018d81528554808a018755958a52878a209451600490960290940180547fffffffffffffffffffffffff00000000000000000000000000000000000000001695909b16949094178a5551958901959095559051600280890191909155905160039097019690965593835293845282822090825290925290205461048590856109bc565b6001600160a01b038085166000908152600260209081526040808320938a1683529290522055506001949350505050565b600360209081526000928352604080842090915290825290205460ff1681565b6104de61090f565b6001600160a01b03166104ef610577565b6001600160a01b0316146105155760405162461bcd60e51b8152600401610207906110e7565b600080546040516001600160a01b03909116907f8be0079c531659141344cd1fd0a4f28419497f9722a3daafe3b4186f6b6457e0908390a3600080547fffffffffffffffffffffffff0000000000000000000000000000000000000000169055565b6000546001600160a01b031690565b61058e61090f565b6001600160a01b031661059f610577565b6001600160a01b0316146105c55760405162461bcd60e51b8152600401610207906110e7565b6001600160a01b038316600090815260036020908152604080832084845290915290205460ff16156106095760405162461bcd60e51b815260040161020790611053565b6001600160a01b0383166000908152600160209081526040808320805482518185028101850190935280835260609492939192909184015b8282101561069e576000848152602090819020604080516080810182526004860290920180546001600160a01b03168352600180820154848601526002820154928401929092526003015460608301529083529092019101610641565b5050505090506106e58183815181106106b357fe5b6020026020010151606001518284815181106106cb57fe5b6020026020010151604001516109bc90919063ffffffff16565b4210156107045760405162461bcd60e51b815260040161020790611179565b600081838151811061071257fe5b6020026020010151602001519050600082848151811061072e57fe5b602090810291909101810151516001600160a01b0380891660009081526002845260408082209284168252919093529091205490915061076e90836109e8565b6001600160a01b03808816600081815260026020908152604080832094871680845294825280832095909555918152600382528381208882529091529190912080547fffffffffffffffffffffffffffffffffffffffffffffffffffffffffffffff001660011790556107e2908684610a10565b505050505050565b6001602052816000526040600020818154811061080357fe5b600091825260209091206004909102018054600182015460028301546003909301546001600160a01b039092169450925084565b61083f61090f565b6001600160a01b0316610850610577565b6001600160a01b0316146108765760405162461bcd60e51b8152600401610207906110e7565b6001600160a01b03811661089c5760405162461bcd60e51b815260040161020790610ece565b600080546040516001600160a01b03808516939216917f8be0079c531659141344cd1fd0a4f28419497f9722a3daafe3b4186f6b6457e091a3600080547fffffffffffffffffffffffff0000000000000000000000000000000000000000166001600160a01b0392909216919091179055565b3390565b6109b6846323b872dd60e01b85858560405160240161093493929190610e0f565b604080517fffffffffffffffffffffffffffffffffffffffffffffffffffffffffffffffe08184030181529190526020810180517bffffffffffffffffffffffffffffffffffffffffffffffffffffffff167fffffffff0000000000000000000000000000000000000000000000000000000090931692909217909152610a34565b50505050565b6000828201838110156109e15760405162461bcd60e51b815260040161020790610f2b565b9392505050565b600082821115610a0a5760405162461bcd60e51b815260040161020790610f62565b50900390565b610a2f8363a9059cbb60e01b8484604051602401610934929190610e33565b505050565b6060610a89826040518060400160405280602081526020017f5361666545524332303a206c6f772d6c6576656c2063616c6c206661696c6564815250856001600160a01b0316610ac39092919063ffffffff16565b805190915015610a2f5780806020019051810190610aa79190610d78565b610a2f5760405162461bcd60e51b81526004016102079061120d565b6060610ad28484600085610ada565b949350505050565b606082471015610afc5760405162461bcd60e51b815260040161020790610f99565b610b0585610b9b565b610b215760405162461bcd60e51b8152600401610207906111d6565b60006060866001600160a01b03168587604051610b3e9190610ddf565b60006040518083038185875af1925050503d8060008114610b7b576040519150601f19603f3d011682016040523d82523d6000602084013e610b80565b606091505b5091509150610b90828286610ba1565b979650505050505050565b3b151590565b60608315610bb05750816109e1565b825115610bc05782518084602001fd5b8160405162461bcd60e51b81526004016102079190610e7d565b60008083601f840112610beb578182fd5b50813567ffffffffffffffff811115610c02578182fd5b6020830191508360208083028501011115610c1c57600080fd5b9250929050565b600060208284031215610c34578081fd5b81356109e181611304565b60008060408385031215610c51578081fd5b8235610c5c81611304565b91506020830135610c6c81611304565b809150509250929050565b600080600060608486031215610c8b578081fd5b8335610c9681611304565b92506020840135610ca681611304565b929592945050506040919091013590565b60008060408385031215610cc9578182fd5b8235610cd481611304565b946020939093013593505050565b60008060008060008060608789031215610cfa578182fd5b863567ffffffffffffffff80821115610d11578384fd5b610d1d8a838b01610bda565b90985096506020890135915080821115610d35578384fd5b610d418a838b01610bda565b90965094506040890135915080821115610d59578384fd5b50610d6689828a01610bda565b979a9699509497509295939492505050565b600060208284031215610d89578081fd5b815180151581146109e1578182fd5b60008060008060808587031215610dad578384fd5b8435610db881611304565b9350602085013592506040850135610dcf81611304565b9396929550929360600135925050565b60008251610df18184602087016112d8565b9190910192915050565b6001600160a01b0391909116815260200190565b6001600160a01b039384168152919092166020820152604081019190915260600190565b6001600160a01b03929092168252602082015260400190565b6001600160a01b0394909416845260208401929092526040830152606082015260800190565b901515815260200190565b6000602082528251806020840152610e9c8160408501602087016112d8565b601f017fffffffffffffffffffffffffffffffffffffffffffffffffffffffffffffffe0169190910160400192915050565b60208082526026908201527f4f776e61626c653a206e6577206f776e657220697320746865207a65726f206160408201527f6464726573730000000000000000000000000000000000000000000000000000606082015260800190565b6020808252601b908201527f536166654d6174683a206164646974696f6e206f766572666c6f770000000000604082015260600190565b6020808252601e908201527f536166654d6174683a207375627472616374696f6e206f766572666c6f770000604082015260600190565b60208082526026908201527f416464726573733a20696e73756666696369656e742062616c616e636520666f60408201527f722063616c6c0000000000000000000000000000000000000000000000000000606082015260800190565b60208082526032908201527f496e76616c69642061727261792070726f76696465643a205f6469737472696260408201527f75746f72436f6e74726163742026205f746f0000000000000000000000000000606082015260800190565b6020808252600f908201527f416c726561647920636c61696d65640000000000000000000000000000000000604082015260600190565b60208082526025908201527f496e76616c69642061727261792070726f76696465643a205f746f2026205f6c60408201527f6f636b4964000000000000000000000000000000000000000000000000000000606082015260800190565b6020808252818101527f4f776e61626c653a2063616c6c6572206973206e6f7420746865206f776e6572604082015260600190565b60208082526022908201527f496e76616c696420617272617920676976656e3a205f746f2026205f6c6f636b60408201527f4964000000000000000000000000000000000000000000000000000000000000606082015260800190565b60208082526029908201527f43616e6e6f7420636c61696d206e6f772c207374696c6c20696e206c6f636b6960408201527f6e6720706572696f640000000000000000000000000000000000000000000000606082015260800190565b6020808252601d908201527f416464726573733a2063616c6c20746f206e6f6e2d636f6e7472616374000000604082015260600190565b6020808252602a908201527f5361666545524332303a204552433230206f7065726174696f6e20646964206e60408201527f6f74207375636365656400000000000000000000000000000000000000000000606082015260800190565b90815260200190565b60008083357fffffffffffffffffffffffffffffffffffffffffffffffffffffffffffffffe18436030181126112a7578283fd5b83018035915067ffffffffffffffff8211156112c1578283fd5b6020908101925081023603821315610c1c57600080fd5b60005b838110156112f35781810151838201526020016112db565b838111156109b65750506000910152565b6001600160a01b038116811461131957600080fd5b5056fea2646970667358221220207fbbad15abd0b27697a2769396f18716f0207879b6998cea0a2365a467c01664736f6c634300060c0033",
  "linkReferences": {},
  "deployedLinkReferences": {}
}