{
  "_format": "hh-sol-artifact-1",
  "contractName": "TopDog",
  "sourceName": "contracts/TopDog.sol",
  "abi": [
    {
      "inputs": [
        {
          "internalType": "contract BoneToken",
          "name": "_bone",
          "type": "address"
        },
        {
          "internalType": "contract BoneLocker",
          "name": "_boneLocker",
          "type": "address"
        },
        {
          "internalType": "address",
          "name": "_devBoneDistributor",
          "type": "address"
        },
        {
          "internalType": "address",
          "name": "_tBoneBoneDistributor",
          "type": "address"
        },
        {
          "internalType": "address",
          "name": "_xShibBoneDistributor",
          "type": "address"
        },
        {
          "internalType": "address",
          "name": "_xLeashBoneDistributor",
          "type": "address"
        },
        {
          "internalType": "uint256",
          "name": "_bonePerBlock",
          "type": "uint256"
        },
        {
          "internalType": "uint256",
          "name": "_startBlock",
          "type": "uint256"
        },
        {
          "internalType": "uint256",
          "name": "_bonusEndBlock",
          "type": "uint256"
        },
        {
          "internalType": "uint256",
          "name": "_rewardMintPercent",
          "type": "uint256"
        },
        {
          "internalType": "uint256",
          "name": "_devRewardMintPercent",
          "type": "uint256"
        }
      ],
      "stateMutability": "nonpayable",
      "type": "constructor"
    },
    {
      "anonymous": false,
      "inputs": [
        {
          "indexed": true,
          "internalType": "address",
          "name": "user",
          "type": "address"
        },
        {
          "indexed": true,
          "internalType": "uint256",
          "name": "pid",
          "type": "uint256"
        },
        {
          "indexed": false,
          "internalType": "uint256",
          "name": "amount",
          "type": "uint256"
        }
      ],
      "name": "Deposit",
      "type": "event"
    },
    {
      "anonymous": false,
      "inputs": [
        {
          "indexed": true,
          "internalType": "address",
          "name": "user",
          "type": "address"
        },
        {
          "indexed": true,
          "internalType": "uint256",
          "name": "pid",
          "type": "uint256"
        },
        {
          "indexed": false,
          "internalType": "uint256",
          "name": "amount",
          "type": "uint256"
        }
      ],
      "name": "EmergencyWithdraw",
      "type": "event"
    },
    {
      "anonymous": false,
      "inputs": [
        {
          "indexed": true,
          "internalType": "address",
          "name": "previousOwner",
          "type": "address"
        },
        {
          "indexed": true,
          "internalType": "address",
          "name": "newOwner",
          "type": "address"
        }
      ],
      "name": "OwnershipTransferred",
      "type": "event"
    },
    {
      "anonymous": false,
      "inputs": [
        {
          "indexed": true,
          "internalType": "address",
          "name": "user",
          "type": "address"
        },
        {
          "indexed": false,
          "internalType": "uint256",
          "name": "_newReward",
          "type": "uint256"
        }
      ],
      "name": "RewardPerBlock",
      "type": "event"
    },
    {
      "anonymous": false,
      "inputs": [
        {
          "indexed": true,
          "internalType": "string",
          "name": "which",
          "type": "string"
        },
        {
          "indexed": true,
          "internalType": "address",
          "name": "user",
          "type": "address"
        },
        {
          "indexed": false,
          "internalType": "address",
          "name": "newAddr",
          "type": "address"
        }
      ],
      "name": "SetAddress",
      "type": "event"
    },
    {
      "anonymous": false,
      "inputs": [
        {
          "indexed": true,
          "internalType": "string",
          "name": "which",
          "type": "string"
        },
        {
          "indexed": true,
          "internalType": "address",
          "name": "user",
          "type": "address"
        },
        {
          "indexed": false,
          "internalType": "uint256",
          "name": "newPercent",
          "type": "uint256"
        }
      ],
      "name": "SetPercent",
      "type": "event"
    },
    {
      "anonymous": false,
      "inputs": [
        {
          "indexed": true,
          "internalType": "address",
          "name": "user",
          "type": "address"
        },
        {
          "indexed": true,
          "internalType": "uint256",
          "name": "pid",
          "type": "uint256"
        },
        {
          "indexed": false,
          "internalType": "uint256",
          "name": "amount",
          "type": "uint256"
        }
      ],
      "name": "Withdraw",
      "type": "event"
    },
    {
      "inputs": [],
      "name": "BONUS_MULTIPLIER",
      "outputs": [
        {
          "internalType": "uint256",
          "name": "",
          "type": "uint256"
        }
      ],
      "stateMutability": "view",
      "type": "function"
    },
    {
      "inputs": [
        {
          "internalType": "uint256",
          "name": "_allocPoint",
          "type": "uint256"
        },
        {
          "internalType": "contract IERC20",
          "name": "_lpToken",
          "type": "address"
        },
        {
          "internalType": "bool",
          "name": "_withUpdate",
          "type": "bool"
        }
      ],
      "name": "add",
      "outputs": [],
      "stateMutability": "nonpayable",
      "type": "function"
    },
    {
      "inputs": [],
      "name": "bone",
      "outputs": [
        {
          "internalType": "contract BoneToken",
          "name": "",
          "type": "address"
        }
      ],
      "stateMutability": "view",
      "type": "function"
    },
    {
      "inputs": [],
      "name": "boneLocker",
      "outputs": [
        {
          "internalType": "contract BoneLocker",
          "name": "",
          "type": "address"
        }
      ],
      "stateMutability": "view",
      "type": "function"
    },
    {
      "inputs": [
        {
          "internalType": "address",
          "name": "_boneLocker",
          "type": "address"
        }
      ],
      "name": "boneLockerUpdate",
      "outputs": [],
      "stateMutability": "nonpayable",
      "type": "function"
    },
    {
      "inputs": [],
      "name": "bonePerBlock",
      "outputs": [
        {
          "internalType": "uint256",
          "name": "",
          "type": "uint256"
        }
      ],
      "stateMutability": "view",
      "type": "function"
    },
    {
      "inputs": [],
      "name": "bonusEndBlock",
      "outputs": [
        {
          "internalType": "uint256",
          "name": "",
          "type": "uint256"
        }
      ],
      "stateMutability": "view",
      "type": "function"
    },
    {
      "inputs": [
        {
          "internalType": "address",
          "name": "_to",
          "type": "address"
        }
      ],
      "name": "callEmergencyWithdraw",
      "outputs": [],
      "stateMutability": "nonpayable",
      "type": "function"
    },
    {
      "inputs": [
        {
          "internalType": "uint256",
          "name": "_pid",
          "type": "uint256"
        },
        {
          "internalType": "uint256",
          "name": "_amount",
          "type": "uint256"
        }
      ],
      "name": "deposit",
      "outputs": [],
      "stateMutability": "nonpayable",
      "type": "function"
    },
    {
      "inputs": [],
      "name": "devBoneDistributor",
      "outputs": [
        {
          "internalType": "address",
          "name": "",
          "type": "address"
        }
      ],
      "stateMutability": "view",
      "type": "function"
    },
    {
      "inputs": [
        {
          "internalType": "address",
          "name": "_devBoneDistributor",
          "type": "address"
        }
      ],
      "name": "devBoneDistributorUpdate",
      "outputs": [],
      "stateMutability": "nonpayable",
      "type": "function"
    },
    {
      "inputs": [],
      "name": "devPercent",
      "outputs": [
        {
          "internalType": "uint256",
          "name": "",
          "type": "uint256"
        }
      ],
      "stateMutability": "view",
      "type": "function"
    },
    {
      "inputs": [
        {
          "internalType": "uint256",
          "name": "_devPercent",
          "type": "uint256"
        }
      ],
      "name": "devPercentUpdate",
      "outputs": [],
      "stateMutability": "nonpayable",
      "type": "function"
    },
    {
      "inputs": [],
      "name": "devRewardMintPercent",
      "outputs": [
        {
          "internalType": "uint256",
          "name": "",
          "type": "uint256"
        }
      ],
      "stateMutability": "view",
      "type": "function"
    },
    {
      "inputs": [
        {
          "internalType": "uint256",
          "name": "_pid",
          "type": "uint256"
        }
      ],
      "name": "emergencyWithdraw",
      "outputs": [],
      "stateMutability": "nonpayable",
      "type": "function"
    },
    {
      "inputs": [
        {
          "internalType": "uint256",
          "name": "_from",
          "type": "uint256"
        },
        {
          "internalType": "uint256",
          "name": "_to",
          "type": "uint256"
        }
      ],
      "name": "getMultiplier",
      "outputs": [
        {
          "internalType": "uint256",
          "name": "",
          "type": "uint256"
        }
      ],
      "stateMutability": "view",
      "type": "function"
    },
    {
      "inputs": [],
      "name": "massUpdatePools",
      "outputs": [],
      "stateMutability": "nonpayable",
      "type": "function"
    },
    {
      "inputs": [
        {
          "internalType": "uint256",
          "name": "_pid",
          "type": "uint256"
        }
      ],
      "name": "migrate",
      "outputs": [],
      "stateMutability": "nonpayable",
      "type": "function"
    },
    {
      "inputs": [],
      "name": "migrator",
      "outputs": [
        {
          "internalType": "contract IMigratorShib",
          "name": "",
          "type": "address"
        }
      ],
      "stateMutability": "view",
      "type": "function"
    },
    {
      "inputs": [],
      "name": "owner",
      "outputs": [
        {
          "internalType": "address",
          "name": "",
          "type": "address"
        }
      ],
      "stateMutability": "view",
      "type": "function"
    },
    {
      "inputs": [
        {
          "internalType": "uint256",
          "name": "_pid",
          "type": "uint256"
        },
        {
          "internalType": "address",
          "name": "_user",
          "type": "address"
        }
      ],
      "name": "pendingBone",
      "outputs": [
        {
          "internalType": "uint256",
          "name": "",
          "type": "uint256"
        }
      ],
      "stateMutability": "view",
      "type": "function"
    },
    {
      "inputs": [
        {
          "internalType": "contract IERC20",
          "name": "",
          "type": "address"
        }
      ],
      "name": "poolExistence",
      "outputs": [
        {
          "internalType": "bool",
          "name": "",
          "type": "bool"
        }
      ],
      "stateMutability": "view",
      "type": "function"
    },
    {
      "inputs": [
        {
          "internalType": "uint256",
          "name": "",
          "type": "uint256"
        }
      ],
      "name": "poolInfo",
      "outputs": [
        {
          "internalType": "contract IERC20",
          "name": "lpToken",
          "type": "address"
        },
        {
          "internalType": "uint256",
          "name": "allocPoint",
          "type": "uint256"
        },
        {
          "internalType": "uint256",
          "name": "lastRewardBlock",
          "type": "uint256"
        },
        {
          "internalType": "uint256",
          "name": "accBonePerShare",
          "type": "uint256"
        }
      ],
      "stateMutability": "view",
      "type": "function"
    },
    {
      "inputs": [],
      "name": "poolLength",
      "outputs": [
        {
          "internalType": "uint256",
          "name": "",
          "type": "uint256"
        }
      ],
      "stateMutability": "view",
      "type": "function"
    },
    {
      "inputs": [],
      "name": "renounceOwnership",
      "outputs": [],
      "stateMutability": "nonpayable",
      "type": "function"
    },
    {
      "inputs": [],
      "name": "rewardMintPercent",
      "outputs": [
        {
          "internalType": "uint256",
          "name": "",
          "type": "uint256"
        }
      ],
      "stateMutability": "view",
      "type": "function"
    },
    {
      "inputs": [
        {
          "internalType": "uint256",
          "name": "_pid",
          "type": "uint256"
        },
        {
          "internalType": "uint256",
          "name": "_allocPoint",
          "type": "uint256"
        },
        {
          "internalType": "bool",
          "name": "_withUpdate",
          "type": "bool"
        }
      ],
      "name": "set",
      "outputs": [],
      "stateMutability": "nonpayable",
      "type": "function"
    },
    {
      "inputs": [
        {
          "internalType": "uint256",
          "name": "_newPercent",
          "type": "uint256"
        }
      ],
      "name": "setDevRewardMintPercent",
      "outputs": [],
      "stateMutability": "nonpayable",
      "type": "function"
    },
    {
      "inputs": [
        {
          "internalType": "uint256",
          "name": "_newLockingPeriod",
          "type": "uint256"
        },
        {
          "internalType": "uint256",
          "name": "_newDevLockingPeriod",
          "type": "uint256"
        }
      ],
      "name": "setLockingPeriod",
      "outputs": [],
      "stateMutability": "nonpayable",
      "type": "function"
    },
    {
      "inputs": [
        {
          "internalType": "contract IMigratorShib",
          "name": "_migrator",
          "type": "address"
        }
      ],
      "name": "setMigrator",
      "outputs": [],
      "stateMutability": "nonpayable",
      "type": "function"
    },
    {
      "inputs": [
        {
          "internalType": "uint256",
          "name": "_newPercent",
          "type": "uint256"
        }
      ],
      "name": "setRewardMintPercent",
      "outputs": [],
      "stateMutability": "nonpayable",
      "type": "function"
    },
    {
      "inputs": [],
      "name": "startBlock",
      "outputs": [
        {
          "internalType": "uint256",
          "name": "",
          "type": "uint256"
        }
      ],
      "stateMutability": "view",
      "type": "function"
    },
    {
      "inputs": [],
      "name": "tBoneBoneDistributor",
      "outputs": [
        {
          "internalType": "address",
          "name": "",
          "type": "address"
        }
      ],
      "stateMutability": "view",
      "type": "function"
    },
    {
      "inputs": [
        {
          "internalType": "address",
          "name": "_tBoneBoneDistributor",
          "type": "address"
        }
      ],
      "name": "tBoneBoneDistributorUpdate",
      "outputs": [],
      "stateMutability": "nonpayable",
      "type": "function"
    },
    {
      "inputs": [],
      "name": "tBonePercent",
      "outputs": [
        {
          "internalType": "uint256",
          "name": "",
          "type": "uint256"
        }
      ],
      "stateMutability": "view",
      "type": "function"
    },
    {
      "inputs": [
        {
          "internalType": "uint256",
          "name": "_tBonePercent",
          "type": "uint256"
        }
      ],
      "name": "tBonePercentUpdate",
      "outputs": [],
      "stateMutability": "nonpayable",
      "type": "function"
    },
    {
      "inputs": [],
      "name": "totalAllocPoint",
      "outputs": [
        {
          "internalType": "uint256",
          "name": "",
          "type": "uint256"
        }
      ],
      "stateMutability": "view",
      "type": "function"
    },
    {
      "inputs": [
        {
          "internalType": "address",
          "name": "newOwner",
          "type": "address"
        }
      ],
      "name": "transferOwnership",
      "outputs": [],
      "stateMutability": "nonpayable",
      "type": "function"
    },
    {
      "inputs": [
        {
          "internalType": "uint256",
          "name": "_pid",
          "type": "uint256"
        }
      ],
      "name": "updatePool",
      "outputs": [],
      "stateMutability": "nonpayable",
      "type": "function"
    },
    {
      "inputs": [
        {
          "internalType": "uint256",
          "name": "_perBlock",
          "type": "uint256"
        }
      ],
      "name": "updateRewardPerBlock",
      "outputs": [],
      "stateMutability": "nonpayable",
      "type": "function"
    },
    {
      "inputs": [
        {
          "internalType": "uint256",
          "name": "",
          "type": "uint256"
        },
        {
          "internalType": "address",
          "name": "",
          "type": "address"
        }
      ],
      "name": "userInfo",
      "outputs": [
        {
          "internalType": "uint256",
          "name": "amount",
          "type": "uint256"
        },
        {
          "internalType": "uint256",
          "name": "rewardDebt",
          "type": "uint256"
        }
      ],
      "stateMutability": "view",
      "type": "function"
    },
    {
      "inputs": [
        {
          "internalType": "uint256",
          "name": "_pid",
          "type": "uint256"
        },
        {
          "internalType": "uint256",
          "name": "_amount",
          "type": "uint256"
        }
      ],
      "name": "withdraw",
      "outputs": [],
      "stateMutability": "nonpayable",
      "type": "function"
    },
    {
      "inputs": [],
      "name": "xLeashBoneDistributor",
      "outputs": [
        {
          "internalType": "address",
          "name": "",
          "type": "address"
        }
      ],
      "stateMutability": "view",
      "type": "function"
    },
    {
      "inputs": [
        {
          "internalType": "address",
          "name": "_xLeashBoneDistributor",
          "type": "address"
        }
      ],
      "name": "xLeashBoneDistributorUpdate",
      "outputs": [],
      "stateMutability": "nonpayable",
      "type": "function"
    },
    {
      "inputs": [],
      "name": "xLeashPercent",
      "outputs": [
        {
          "internalType": "uint256",
          "name": "",
          "type": "uint256"
        }
      ],
      "stateMutability": "view",
      "type": "function"
    },
    {
      "inputs": [
        {
          "internalType": "uint256",
          "name": "_xLeashPercent",
          "type": "uint256"
        }
      ],
      "name": "xLeashPercentUpdate",
      "outputs": [],
      "stateMutability": "nonpayable",
      "type": "function"
    },
    {
      "inputs": [],
      "name": "xShibBoneDistributor",
      "outputs": [
        {
          "internalType": "address",
          "name": "",
          "type": "address"
        }
      ],
      "stateMutability": "view",
      "type": "function"
    },
    {
      "inputs": [
        {
          "internalType": "address",
          "name": "_xShibBoneDistributor",
          "type": "address"
        }
      ],
      "name": "xShibBoneDistributorUpdate",
      "outputs": [],
      "stateMutability": "nonpayable",
      "type": "function"
    },
    {
      "inputs": [],
      "name": "xShibPercent",
      "outputs": [
        {
          "internalType": "uint256",
          "name": "",
          "type": "uint256"
        }
      ],
      "stateMutability": "view",
      "type": "function"
    },
    {
      "inputs": [
        {
          "internalType": "uint256",
          "name": "_xShibPercent",
          "type": "uint256"
        }
      ],
      "name": "xShibPercentUpdate",
      "outputs": [],
      "stateMutability": "nonpayable",
      "type": "function"
    }
  ],
  "bytecode": "0x608060405260006011553480156200001657600080fd5b506040516200375c3803806200375c83398181016040526101608110156200003d57600080fd5b508051602082015160408301516060840151608085015160a086015160c087015160e08801516101008901516101208a0151610140909a01519899979896979596949593949293919290919060006200009562000182565b600080546001600160a01b0319166001600160a01b0383169081178255604051929350917f8be0079c531659141344cd1fd0a4f28419497f9722a3daafe3b4186f6b6457e0908290a3506001808055600280546001600160a01b03199081166001600160a01b039e8f16179091556003805482169c8e169c909c178c556004805482169b8e169b909b17909a55600d95909555600c92909255601292909255600580548816968a169690961790955560068054871694891694909417909355600780549095169190961617909255601391909155601455600a6008819055600983905555600b5562000186565b3390565b6135c680620001966000396000f3fe608060405234801561001057600080fd5b50600436106103355760003560e01c806374849c53116101b2578063b666944f116100f9578063e2bbb158116100a2578063f2fde38b1161007c578063f2fde38b146107f3578063f7980b8914610819578063fc3c28af1461083f578063fffb42361461084757610335565b8063e2bbb158146107ab578063ee2f5055146107ce578063eeeefb69146107d657610335565b8063cbd258b5116100d3578063cbd258b514610737578063dc7a77e214610771578063e1647d8a1461078e57610335565b8063b666944f14610704578063bff783ae1461070c578063c84219171461072f57610335565b80638aa285501161015b57806393f1a40b1161013557806393f1a40b14610673578063a9e89a02146106b8578063b6029be8146106de57610335565b80638aa28550146106405780638da5cb5b146106485780638dbb1e3a1461065057610335565b80637cd07e471161018c5780637cd07e471461062857806381c7e4fa1461063057806386df69031461063857610335565b806374849c53146105ec5780637a48ab22146106185780637bed78091461062057610335565b80633564e9061161028157806351eb05a61161022a578063616cb7c411610204578063616cb7c4146105a9578063630b5ba1146105b157806364482f79146105b9578063715018a6146105e457610335565b806351eb05a6146105675780635312ea8e1461058457806360b6d6de146105a157610335565b8063454b06081161025b578063454b06081461051c57806348cd4cb1146105395780634e5a0a611461054157610335565b80633564e906146104cb5780634324f02f146104d3578063441a3e70146104f957610335565b806317caf6f1116102e35780631eaaa045116102bd5780631eaaa0451461044d57806323cf31181461048157806326631b65146104a757610335565b806317caf6f11461042057806318ce99ef146104285780631aed65531461044557610335565b806307a6fa6f1161031457806307a6fa6f1461039c578063081e3eda146103b95780631526fe27146103d357610335565b80627c1ffa1461033a57806301f8a97614610359578063041219a714610376575b600080fd5b6103576004803603602081101561035057600080fd5b503561084f565b005b6103576004803603602081101561036f57600080fd5b5035610930565b6103576004803603602081101561038c57600080fd5b50356001600160a01b03166109ea565b610357600480360360208110156103b257600080fd5b5035610af2565b6103c1610bd3565b60408051918252519081900360200190f35b6103f0600480360360208110156103e957600080fd5b5035610bd9565b604080516001600160a01b0390951685526020850193909352838301919091526060830152519081900360800190f35b6103c1610c1a565b6103576004803603602081101561043e57600080fd5b5035610c20565b6103c1610d01565b6103576004803603606081101561046357600080fd5b508035906001600160a01b0360208201351690604001351515610d07565b6103576004803603602081101561049757600080fd5b50356001600160a01b0316610f3e565b6104af611046565b604080516001600160a01b039092168252519081900360200190f35b6104af611055565b610357600480360360208110156104e957600080fd5b50356001600160a01b0316611064565b6103576004803603604081101561050f57600080fd5b508035906020013561116c565b6103576004803603602081101561053257600080fd5b50356113fe565b6103c16116cc565b6103576004803603602081101561055757600080fd5b50356001600160a01b03166116d2565b6103576004803603602081101561057d57600080fd5b5035611775565b6103576004803603602081101561059a57600080fd5b5035611cda565b6104af611d76565b6103c1611d85565b610357611d8b565b610357600480360360608110156105cf57600080fd5b50803590602081013590604001351515611dae565b610357611e9b565b6103c16004803603604081101561060257600080fd5b50803590602001356001600160a01b0316611f66565b6103c16120e3565b6103c16120e9565b6104af6120ef565b6103c16120fe565b6103c1612104565b6103c161210a565b6104af61210f565b6103c16004803603604081101561066657600080fd5b508035906020013561211e565b61069f6004803603604081101561068957600080fd5b50803590602001356001600160a01b0316612194565b6040805192835260208301919091528051918290030190f35b610357600480360360208110156106ce57600080fd5b50356001600160a01b03166121b8565b610357600480360360208110156106f457600080fd5b50356001600160a01b03166122ae565b6104af612351565b6103576004803603604081101561072257600080fd5b5080359060200135612360565b6103c161245d565b61075d6004803603602081101561074d57600080fd5b50356001600160a01b0316612463565b604080519115158252519081900360200190f35b6103576004803603602081101561078757600080fd5b5035612478565b610357600480360360208110156107a457600080fd5b5035612559565b610357600480360360408110156107c157600080fd5b508035906020013561263a565b6104af61286f565b610357600480360360208110156107ec57600080fd5b503561287e565b6103576004803603602081101561080957600080fd5b50356001600160a01b03166129b5565b6103576004803603602081101561082f57600080fd5b50356001600160a01b0316612ad6565b6103c1612bde565b6104af612be4565b610857612bf3565b6001600160a01b031661086861210f565b6001600160a01b0316146108c3576040805162461bcd60e51b815260206004820181905260248201527f4f776e61626c653a2063616c6c6572206973206e6f7420746865206f776e6572604482015290519081900360640190fd5b6014819055604080517f4465765265776172644d696e74000000000000000000000000000000000000008152815190819003600d01812083825291513392917fb653881c9fc267b8dddb6116f411bd9b41adc2d8fa324e7402d26e656a92c21a919081900360200190a350565b610938612bf3565b6001600160a01b031661094961210f565b6001600160a01b0316146109a4576040805162461bcd60e51b815260206004820181905260248201527f4f776e61626c653a2063616c6c6572206973206e6f7420746865206f776e6572604482015290519081900360640190fd5b6109ac611d8b565b600d81905560408051828152905133917f6c8f4c3680517ed972252bff6614d3239839473a252ca0ac589c69b543005f73919081900360200190a250565b6109f2612bf3565b6001600160a01b0316610a0361210f565b6001600160a01b031614610a5e576040805162461bcd60e51b815260206004820181905260248201527f4f776e61626c653a2063616c6c6572206973206e6f7420746865206f776e6572604482015290519081900360640190fd5b600780546001600160a01b03831673ffffffffffffffffffffffffffffffffffffffff199091168117909155604080517f784c656173682d426f6e654469737472696275746f72000000000000000000008152815190819003601601812092815290513392917f86f9c80ce3fc41b1d49ca02c0e9835713d8fbfe63e8faeb589d90d909f5febaf919081900360200190a350565b610afa612bf3565b6001600160a01b0316610b0b61210f565b6001600160a01b031614610b66576040805162461bcd60e51b815260206004820181905260248201527f4f776e61626c653a2063616c6c6572206973206e6f7420746865206f776e6572604482015290519081900360640190fd5b600a819055604080517f78536869622073686172650000000000000000000000000000000000000000008152815190819003600b01812083825291513392917fb653881c9fc267b8dddb6116f411bd9b41adc2d8fa324e7402d26e656a92c21a919081900360200190a350565b600f5490565b600f8181548110610be657fe5b600091825260209091206004909102018054600182015460028301546003909301546001600160a01b039092169350919084565b60115481565b610c28612bf3565b6001600160a01b0316610c3961210f565b6001600160a01b031614610c94576040805162461bcd60e51b815260206004820181905260248201527f4f776e61626c653a2063616c6c6572206973206e6f7420746865206f776e6572604482015290519081900360640190fd5b6009819055604080517f74426f6e652073686172650000000000000000000000000000000000000000008152815190819003600b01812083825291513392917fb653881c9fc267b8dddb6116f411bd9b41adc2d8fa324e7402d26e656a92c21a919081900360200190a350565b600c5481565b610d0f612bf3565b6001600160a01b0316610d2061210f565b6001600160a01b031614610d7b576040805162461bcd60e51b815260206004820181905260248201527f4f776e61626c653a2063616c6c6572206973206e6f7420746865206f776e6572604482015290519081900360640190fd5b6001600160a01b038216600090815260156020526040902054829060ff1615610dd55760405162461bcd60e51b81526004018080602001828103825260218152602001806134a36021913960400191505060405180910390fd5b8115610de357610de3611d8b565b60006012544311610df657601254610df8565b435b601154909150610e089086612bf7565b6011556001600160a01b039384166000818152601560209081526040808320805460017fffffffffffffffffffffffffffffffffffffffffffffffffffffffffffffff0090911681179091558151608081018352948552918401988952830193845260608301828152600f8054928301815590925291517f8d1108e10bcb7c27dddfc02ed9d693a074039d026cf4ea4240b40f7d581ac8026004909302928301805473ffffffffffffffffffffffffffffffffffffffff1916919097161790955594517f8d1108e10bcb7c27dddfc02ed9d693a074039d026cf4ea4240b40f7d581ac803860155517f8d1108e10bcb7c27dddfc02ed9d693a074039d026cf4ea4240b40f7d581ac8048501555050517f8d1108e10bcb7c27dddfc02ed9d693a074039d026cf4ea4240b40f7d581ac80590910155565b610f46612bf3565b6001600160a01b0316610f5761210f565b6001600160a01b031614610fb2576040805162461bcd60e51b815260206004820181905260248201527f4f776e61626c653a2063616c6c6572206973206e6f7420746865206f776e6572604482015290519081900360640190fd5b600e80546001600160a01b03831673ffffffffffffffffffffffffffffffffffffffff199091168117909155604080517f4d69677261746f720000000000000000000000000000000000000000000000008152815190819003600801812092815290513392917f86f9c80ce3fc41b1d49ca02c0e9835713d8fbfe63e8faeb589d90d909f5febaf919081900360200190a350565b6002546001600160a01b031681565b6006546001600160a01b031681565b61106c612bf3565b6001600160a01b031661107d61210f565b6001600160a01b0316146110d8576040805162461bcd60e51b815260206004820181905260248201527f4f776e61626c653a2063616c6c6572206973206e6f7420746865206f776e6572604482015290519081900360640190fd5b600680546001600160a01b03831673ffffffffffffffffffffffffffffffffffffffff199091168117909155604080517f78536869622d426f6e654469737472696275746f7200000000000000000000008152815190819003601501812092815290513392917f86f9c80ce3fc41b1d49ca02c0e9835713d8fbfe63e8faeb589d90d909f5febaf919081900360200190a350565b600260015414156111c4576040805162461bcd60e51b815260206004820152601f60248201527f5265656e7472616e637947756172643a207265656e7472616e742063616c6c00604482015290519081900360640190fd5b60026001819055506000600f83815481106111db57fe5b600091825260208083208684526010825260408085203386529092529220805460049092029092019250831115611259576040805162461bcd60e51b815260206004820152601260248201527f77697468647261773a206e6f7420676f6f640000000000000000000000000000604482015290519081900360640190fd5b61126284611775565b600061129c826001015461129664e8d4a5100061129087600301548760000154612c5890919063ffffffff16565b90612cb1565b90612d18565b905080156113725760006112c0606461129060135485612c5890919063ffffffff16565b90506112cc3382612d75565b6003546112eb906001600160a01b03166112e68484612d18565b612d75565b6003546001600160a01b031663507bb14d336113078585612d18565b60006040518463ffffffff1660e01b815260040180846001600160a01b0316815260200183815260200182151581526020019350505050600060405180830381600087803b15801561135857600080fd5b505af115801561136c573d6000803e3d6000fd5b50505050505b831561139c5781546113849085612d18565b8255825461139c906001600160a01b03163386612f4e565b600383015482546113b79164e8d4a510009161129091612c58565b6001830155604080518581529051869133917ff279e6a1f5e320cca91135676d9cb6e44ca8a08c0b88342bcdb1144f6511b5689181900360200190a3505060018055505050565b600e546001600160a01b031661145b576040805162461bcd60e51b815260206004820152601460248201527f6d6967726174653a206e6f206d69677261746f72000000000000000000000000604482015290519081900360640190fd5b6000600f828154811061146a57fe5b600091825260208083206004928302018054604080517f70a082310000000000000000000000000000000000000000000000000000000081523095810195909552519195506001600160a01b0316939284926370a0823192602480840193829003018186803b1580156114dc57600080fd5b505afa1580156114f0573d6000803e3d6000fd5b505050506040513d602081101561150657600080fd5b5051600e54909150611525906001600160a01b03848116911683612fce565b600e54604080517fce5494bb0000000000000000000000000000000000000000000000000000000081526001600160a01b0385811660048301529151600093929092169163ce5494bb9160248082019260209290919082900301818787803b15801561159057600080fd5b505af11580156115a4573d6000803e3d6000fd5b505050506040513d60208110156115ba57600080fd5b5051604080517f70a0823100000000000000000000000000000000000000000000000000000000815230600482015290519192506001600160a01b038316916370a0823191602480820192602092909190829003018186803b15801561161f57600080fd5b505afa158015611633573d6000803e3d6000fd5b505050506040513d602081101561164957600080fd5b5051821461169e576040805162461bcd60e51b815260206004820152600c60248201527f6d6967726174653a206261640000000000000000000000000000000000000000604482015290519081900360640190fd5b835473ffffffffffffffffffffffffffffffffffffffff19166001600160a01b039190911617909255505050565b60125481565b6116da612bf3565b6001600160a01b03166116eb61210f565b6001600160a01b031614611746576040805162461bcd60e51b815260206004820181905260248201527f4f776e61626c653a2063616c6c6572206973206e6f7420746865206f776e6572604482015290519081900360640190fd5b6004805473ffffffffffffffffffffffffffffffffffffffff19166001600160a01b0392909216919091179055565b6000600f828154811061178457fe5b90600052602060002090600402019050806002015443116117a55750611cd7565b8054604080517f70a0823100000000000000000000000000000000000000000000000000000000815230600482015290516000926001600160a01b0316916370a08231916024808301926020929190829003018186803b15801561180857600080fd5b505afa15801561181c573d6000803e3d6000fd5b505050506040513d602081101561183257600080fd5b5051905080611848575043600290910155611cd7565b600061185883600201544361211e565b90506000611885601154611290866001015461187f600d5487612c5890919063ffffffff16565b90612c58565b905060006118a3606461129060085485612c5890919063ffffffff16565b6002546004546014549293506001600160a01b03918216926340c10f1992909116906118d790606490611290908790612c58565b6040518363ffffffff1660e01b815260040180836001600160a01b0316815260200182815260200192505050600060405180830381600087803b15801561191d57600080fd5b505af1158015611931573d6000803e3d6000fd5b50506002546003546014546001600160a01b0392831694506340c10f1993509116906119709061196990606490611290908890612c58565b8590612d18565b6040518363ffffffff1660e01b815260040180836001600160a01b0316815260200182815260200192505050600060405180830381600087803b1580156119b657600080fd5b505af11580156119ca573d6000803e3d6000fd5b50506003546004546014546001600160a01b03928316945063507bb14d9350911690611a029061196990606490611290908890612c58565b60016040518463ffffffff1660e01b815260040180846001600160a01b0316815260200183815260200182151581526020019350505050600060405180830381600087803b158015611a5357600080fd5b505af1158015611a67573d6000803e3d6000fd5b50506002546005546009546001600160a01b0392831694506340c10f199350911690611a9b90606490611290908890612c58565b6040518363ffffffff1660e01b815260040180836001600160a01b0316815260200182815260200192505050600060405180830381600087803b158015611ae157600080fd5b505af1158015611af5573d6000803e3d6000fd5b5050600254600654600a546001600160a01b0392831694506340c10f199350911690611b2990606490611290908890612c58565b6040518363ffffffff1660e01b815260040180836001600160a01b0316815260200182815260200192505050600060405180830381600087803b158015611b6f57600080fd5b505af1158015611b83573d6000803e3d6000fd5b5050600254600754600b546001600160a01b0392831694506340c10f199350911690611bb790606490611290908890612c58565b6040518363ffffffff1660e01b815260040180836001600160a01b0316815260200182815260200192505050600060405180830381600087803b158015611bfd57600080fd5b505af1158015611c11573d6000803e3d6000fd5b5050600254604080517f40c10f190000000000000000000000000000000000000000000000000000000081523060048201526024810187905290516001600160a01b0390921693506340c10f19925060448082019260009290919082900301818387803b158015611c8157600080fd5b505af1158015611c95573d6000803e3d6000fd5b50505050611cc3611cb88561129064e8d4a5100086612c5890919063ffffffff16565b600387015490612bf7565b600386015550504360029093019290925550505b50565b6000600f8281548110611ce957fe5b600091825260208083208584526010825260408085203380875293528420805485825560018201959095556004909302018054909450919291611d39916001600160a01b03919091169083612f4e565b604080518281529051859133917fbb757047c2b5f3974fe26b7c10f732e7bce710b0952a71082702781e62ae05959181900360200190a350505050565b6007546001600160a01b031681565b60135481565b600f5460005b81811015611daa57611da281611775565b600101611d91565b5050565b611db6612bf3565b6001600160a01b0316611dc761210f565b6001600160a01b031614611e22576040805162461bcd60e51b815260206004820181905260248201527f4f776e61626c653a2063616c6c6572206973206e6f7420746865206f776e6572604482015290519081900360640190fd5b8015611e3057611e30611d8b565b611e6d82611e67600f8681548110611e4457fe5b906000526020600020906004020160010154601154612d1890919063ffffffff16565b90612bf7565b60118190555081600f8481548110611e8157fe5b906000526020600020906004020160010181905550505050565b611ea3612bf3565b6001600160a01b0316611eb461210f565b6001600160a01b031614611f0f576040805162461bcd60e51b815260206004820181905260248201527f4f776e61626c653a2063616c6c6572206973206e6f7420746865206f776e6572604482015290519081900360640190fd5b600080546040516001600160a01b03909116907f8be0079c531659141344cd1fd0a4f28419497f9722a3daafe3b4186f6b6457e0908390a36000805473ffffffffffffffffffffffffffffffffffffffff19169055565b600080600f8481548110611f7657fe5b600091825260208083208784526010825260408085206001600160a01b03898116875290845281862060049586029093016003810154815484517f70a082310000000000000000000000000000000000000000000000000000000081523098810198909852935191985093969395939492909116926370a08231926024808301939192829003018186803b15801561200d57600080fd5b505afa158015612021573d6000803e3d6000fd5b505050506040513d602081101561203757600080fd5b505160028501549091504311801561204e57508015155b156120ae57600061206385600201544361211e565b9050600061208a601154611290886001015461187f600d5487612c5890919063ffffffff16565b90506120a96120a2846112908464e8d4a51000612c58565b8590612bf7565b935050505b6120d6836001015461129664e8d4a51000611290868860000154612c5890919063ffffffff16565b9450505050505b92915050565b60145481565b600b5481565b600e546001600160a01b031681565b600d5481565b60095481565b600a81565b6000546001600160a01b031690565b60006012548310156121305760125492505b600c54821161214f57612148600a61187f8486612d18565b90506120dd565b600c548310612162576121488284612d18565b61214861217a600c5484612d1890919063ffffffff16565b611e67600a61187f87600c54612d1890919063ffffffff16565b60106020908152600092835260408084209091529082529020805460019091015482565b6121c0612bf3565b6001600160a01b03166121d161210f565b6001600160a01b03161461222c576040805162461bcd60e51b815260206004820181905260248201527f4f776e61626c653a2063616c6c6572206973206e6f7420746865206f776e6572604482015290519081900360640190fd5b600354604080517f62bfcb060000000000000000000000000000000000000000000000000000000081526001600160a01b038481166004830152915191909216916362bfcb0691602480830192600092919082900301818387803b15801561229357600080fd5b505af11580156122a7573d6000803e3d6000fd5b5050505050565b6122b6612bf3565b6001600160a01b03166122c761210f565b6001600160a01b031614612322576040805162461bcd60e51b815260206004820181905260248201527f4f776e61626c653a2063616c6c6572206973206e6f7420746865206f776e6572604482015290519081900360640190fd5b6003805473ffffffffffffffffffffffffffffffffffffffff19166001600160a01b0392909216919091179055565b6004546001600160a01b031681565b612368612bf3565b6001600160a01b031661237961210f565b6001600160a01b0316146123d4576040805162461bcd60e51b815260206004820181905260248201527f4f776e61626c653a2063616c6c6572206973206e6f7420746865206f776e6572604482015290519081900360640190fd5b600354604080517fbff783ae000000000000000000000000000000000000000000000000000000008152600481018590526024810184905290516001600160a01b039092169163bff783ae9160448082019260009290919082900301818387803b15801561244157600080fd5b505af1158015612455573d6000803e3d6000fd5b505050505050565b600a5481565b60156020526000908152604090205460ff1681565b612480612bf3565b6001600160a01b031661249161210f565b6001600160a01b0316146124ec576040805162461bcd60e51b815260206004820181905260248201527f4f776e61626c653a2063616c6c6572206973206e6f7420746865206f776e6572604482015290519081900360640190fd5b6013819055604080517f5265776172644d696e74000000000000000000000000000000000000000000008152815190819003600a01812083825291513392917fb653881c9fc267b8dddb6116f411bd9b41adc2d8fa324e7402d26e656a92c21a919081900360200190a350565b612561612bf3565b6001600160a01b031661257261210f565b6001600160a01b0316146125cd576040805162461bcd60e51b815260206004820181905260248201527f4f776e61626c653a2063616c6c6572206973206e6f7420746865206f776e6572604482015290519081900360640190fd5b600b819055604080517f784c6561736820736861726500000000000000000000000000000000000000008152815190819003600c01812083825291513392917fb653881c9fc267b8dddb6116f411bd9b41adc2d8fa324e7402d26e656a92c21a919081900360200190a350565b60026001541415612692576040805162461bcd60e51b815260206004820152601f60248201527f5265656e7472616e637947756172643a207265656e7472616e742063616c6c00604482015290519081900360640190fd5b60026001819055506000600f83815481106126a957fe5b600091825260208083208684526010825260408085203386529092529220600490910290910191506126da84611775565b8054156127e257600061270f826001015461129664e8d4a5100061129087600301548760000154612c5890919063ffffffff16565b905080156127e0576000612733606461129060135485612c5890919063ffffffff16565b905061273f3382612d75565b600354612759906001600160a01b03166112e68484612d18565b6003546001600160a01b031663507bb14d336127758585612d18565b60006040518463ffffffff1660e01b815260040180846001600160a01b0316815260200183815260200182151581526020019350505050600060405180830381600087803b1580156127c657600080fd5b505af11580156127da573d6000803e3d6000fd5b50505050505b505b821561280e5781546127ff906001600160a01b0316333086613128565b805461280b9084612bf7565b81555b600382015481546128299164e8d4a510009161129091612c58565b6001820155604080518481529051859133917f90890809c654f11d6e72a28fa60149770a0d11ec6c92319d6ceb2bb0a4ea1a159181900360200190a35050600180555050565b6003546001600160a01b031681565b612886612bf3565b6001600160a01b031661289761210f565b6001600160a01b0316146128f2576040805162461bcd60e51b815260206004820181905260248201527f4f776e61626c653a2063616c6c6572206973206e6f7420746865206f776e6572604482015290519081900360640190fd5b600a811115612948576040805162461bcd60e51b815260206004820152601860248201527f746f70446f673a2050657263656e7420746f6f20686967680000000000000000604482015290519081900360640190fd5b6008819055604080517f44657620736861726500000000000000000000000000000000000000000000008152815190819003600901812083825291513392917fb653881c9fc267b8dddb6116f411bd9b41adc2d8fa324e7402d26e656a92c21a919081900360200190a350565b6129bd612bf3565b6001600160a01b03166129ce61210f565b6001600160a01b031614612a29576040805162461bcd60e51b815260206004820181905260248201527f4f776e61626c653a2063616c6c6572206973206e6f7420746865206f776e6572604482015290519081900360640190fd5b6001600160a01b038116612a6e5760405162461bcd60e51b81526004018080602001828103825260268152602001806134c46026913960400191505060405180910390fd5b600080546040516001600160a01b03808516939216917f8be0079c531659141344cd1fd0a4f28419497f9722a3daafe3b4186f6b6457e091a36000805473ffffffffffffffffffffffffffffffffffffffff19166001600160a01b0392909216919091179055565b612ade612bf3565b6001600160a01b0316612aef61210f565b6001600160a01b031614612b4a576040805162461bcd60e51b815260206004820181905260248201527f4f776e61626c653a2063616c6c6572206973206e6f7420746865206f776e6572604482015290519081900360640190fd5b600580546001600160a01b03831673ffffffffffffffffffffffffffffffffffffffff199091168117909155604080517f74426f6e652d426f6e654469737472696275746f7200000000000000000000008152815190819003601501812092815290513392917f86f9c80ce3fc41b1d49ca02c0e9835713d8fbfe63e8faeb589d90d909f5febaf919081900360200190a350565b60085481565b6005546001600160a01b031681565b3390565b600082820183811015612c51576040805162461bcd60e51b815260206004820152601b60248201527f536166654d6174683a206164646974696f6e206f766572666c6f770000000000604482015290519081900360640190fd5b9392505050565b600082612c67575060006120dd565b82820282848281612c7457fe5b0414612c515760405162461bcd60e51b81526004018080602001828103825260218152602001806135106021913960400191505060405180910390fd5b6000808211612d07576040805162461bcd60e51b815260206004820152601a60248201527f536166654d6174683a206469766973696f6e206279207a65726f000000000000604482015290519081900360640190fd5b818381612d1057fe5b049392505050565b600082821115612d6f576040805162461bcd60e51b815260206004820152601e60248201527f536166654d6174683a207375627472616374696f6e206f766572666c6f770000604482015290519081900360640190fd5b50900390565b600254604080517f70a0823100000000000000000000000000000000000000000000000000000000815230600482015290516000926001600160a01b0316916370a08231916024808301926020929190829003018186803b158015612dd957600080fd5b505afa158015612ded573d6000803e3d6000fd5b505050506040513d6020811015612e0357600080fd5b5051905080821115612eb057600254604080517fa9059cbb0000000000000000000000000000000000000000000000000000000081526001600160a01b038681166004830152602482018590529151919092169163a9059cbb9160448083019260209291908290030181600087803b158015612e7e57600080fd5b505af1158015612e92573d6000803e3d6000fd5b505050506040513d6020811015612ea857600080fd5b50612f499050565b600254604080517fa9059cbb0000000000000000000000000000000000000000000000000000000081526001600160a01b038681166004830152602482018690529151919092169163a9059cbb9160448083019260209291908290030181600087803b158015612f1f57600080fd5b505af1158015612f33573d6000803e3d6000fd5b505050506040513d60208110156122a757600080fd5b505050565b604080516001600160a01b038416602482015260448082018490528251808303909101815260649091019091526020810180517bffffffffffffffffffffffffffffffffffffffffffffffffffffffff167fa9059cbb00000000000000000000000000000000000000000000000000000000179052612f499084906131b6565b80158061306d5750604080517fdd62ed3e0000000000000000000000000000000000000000000000000000000081523060048201526001600160a01b03848116602483015291519185169163dd62ed3e91604480820192602092909190829003018186803b15801561303f57600080fd5b505afa158015613053573d6000803e3d6000fd5b505050506040513d602081101561306957600080fd5b5051155b6130a85760405162461bcd60e51b815260040180806020018281038252603681526020018061355b6036913960400191505060405180910390fd5b604080516001600160a01b038416602482015260448082018490528251808303909101815260649091019091526020810180517bffffffffffffffffffffffffffffffffffffffffffffffffffffffff167f095ea7b300000000000000000000000000000000000000000000000000000000179052612f499084906131b6565b604080516001600160a01b0380861660248301528416604482015260648082018490528251808303909101815260849091019091526020810180517bffffffffffffffffffffffffffffffffffffffffffffffffffffffff167f23b872dd000000000000000000000000000000000000000000000000000000001790526131b09085906131b6565b50505050565b606061320b826040518060400160405280602081526020017f5361666545524332303a206c6f772d6c6576656c2063616c6c206661696c6564815250856001600160a01b03166132679092919063ffffffff16565b805190915015612f495780806020019051602081101561322a57600080fd5b5051612f495760405162461bcd60e51b815260040180806020018281038252602a815260200180613531602a913960400191505060405180910390fd5b6060613276848460008561327e565b949350505050565b6060824710156132bf5760405162461bcd60e51b81526004018080602001828103825260268152602001806134ea6026913960400191505060405180910390fd5b6132c8856133f8565b613319576040805162461bcd60e51b815260206004820152601d60248201527f416464726573733a2063616c6c20746f206e6f6e2d636f6e7472616374000000604482015290519081900360640190fd5b60006060866001600160a01b031685876040518082805190602001908083835b6020831061337657805182527fffffffffffffffffffffffffffffffffffffffffffffffffffffffffffffffe09092019160209182019101613339565b6001836020036101000a03801982511681845116808217855250505050505090500191505060006040518083038185875af1925050503d80600081146133d8576040519150601f19603f3d011682016040523d82523d6000602084013e6133dd565b606091505b50915091506133ed8282866133fe565b979650505050505050565b3b151590565b6060831561340d575081612c51565b82511561341d5782518084602001fd5b8160405162461bcd60e51b81526004018080602001828103825283818151815260200191508051906020019080838360005b8381101561346757818101518382015260200161344f565b50505050905090810190601f1680156134945780820380516001836020036101000a031916815260200191505b509250505060405180910390fdfe6e6f6e4475706c6963617465643a206475706c696361746564206c70546f6b656e4f776e61626c653a206e6577206f776e657220697320746865207a65726f2061646472657373416464726573733a20696e73756666696369656e742062616c616e636520666f722063616c6c536166654d6174683a206d756c7469706c69636174696f6e206f766572666c6f775361666545524332303a204552433230206f7065726174696f6e20646964206e6f7420737563636565645361666545524332303a20617070726f76652066726f6d206e6f6e2d7a65726f20746f206e6f6e2d7a65726f20616c6c6f77616e6365a2646970667358221220ff8d4493a8d0606f1df5c41e8adc682d5ec3b9aa72d60d3d436c2c12da581f9264736f6c634300060c0033",
  "linkReferences": {},
  "deployedLinkReferences": {}
}